:04000000FEEF7FF0A0
:1010000000CE12C612000000000000000000000028
:101010000000000000020403010002400000000084
:10102000026E3D0114BF17EF08F019EF08F081EFD1
:1010300008F00250050D150EF324F66E100EF42084
:10104000F76EF86A000EF82208006F00D7FF14FD53
:101050000250050D010EF326000EF422150EF324A6
:10106000F66E100EF420F76EF86A000EF8220800F3
:101070006F00D7FF15FD0250050D020EF326000E7E
:10108000F422150EF324F66E100EF420F76EF86AB3
:10109000000EF8220800F5500309166F0250050DE6
:1010A000030EF326000EF422150EF324F66E100E36
:1010B000F420F76EF86A000EF82208006F00D7FFE0
:1010C00019FD0250050D040EF326000EF422150E34
:1010D000F324F66E100EF420F76EF86A000EF82274
:1010E00008006F00D4FF01F0014601460146C450DC
:1010F0000118F70B0118C46E148FBB84010E82EF28
:1011000008F0000E1200000EE8EC08F00009D8A468
:101110008CEF08F08EEF08F090EF08F0B5EF08F0D4
:101120006DEC09F0040E3D01126F1169000E116F94
:1011300000D000F06F0040F40CF03D01116900D0C8
:1011400000F06F0040F40DF0000E3D01116F00D073
:1011500000F06F0040F40EF000D000F06F0040F49B
:101160000FF06FEC09F067EC09F01200000EBA6E98
:10117000000EBB6E000EBC6EDF0EC26EC368D30ED7
:10118000C46EC30E3A01606F5069DF0E406F000EEF
:10119000816F000E516F000E416F000E616F000EE7
:1011A000426F000E526F000E626F436953696369AC
:1011B000446954696469080E846F050EE26F130E6A
:1011C000E06F1E0E136F1F0E156F140EE16F1200ED
:1011D000056EF2EF08F063EC09F003EF09F0000E82
:1011E00003EF09F00550036E046A0450000AD8B4F6
:1011F000FCEF08F0EFEF08F00350000AD8B4EBEF73
:1012000008F0EFEF08F01200D40EF66E120EF76E33
:10121000000EF86E00EE0CF010EE05F009006F0005
:10122000D7FFEEFFE550E150F9E10B6A0A6A096A5F
:10123000086A076A00011DEF09F05AEC09F0CC9426
:10124000CA8AC39A83EC08F0820E066EDE0EE82E80
:10125000FED7062EFCD722EF09F0FEEF7FF0000E3E
:101260003901C06F000EC16F000EC26F000EC36F58
:10127000000EC46F000EC56F000EC66F000EC76F64
:101280001200020E3D01146F040E156F030E166F4F
:10129000000E1C6F010E196FC4961200600E39010A
:1012A000D96F000EDB6F000EDD6F050EDF6F000ED5
:1012B000DE6F12002FEC09F0B6EC08F04EEC09F0EE
:1012C00041EC09F01200000E10EC08F012003D0194
:0912D000149F120064617461A90D
:0812DA00CA9A1200CA8A120030
:04FFFC0004EF09F015
:020000040020DA
:10000000FF0FFF0FFF0FFF0FFF0FFF0FFF0FFF0F80
:020000040030CA
:0A0000008CFFF7FF9FFFFFFFFFFFDB
:00000001FF
